{
  "_format": "hh-sol-artifact-1",
  "contractName": "Web3Mint",
  "sourceName": "contracts/Web3Mint.sol",
  "abi": [
    {
      "inputs": [],
      "stateMutability": "nonpayable",
      "type": "constructor"
    },
    {
      "anonymous": false,
      "inputs": [
        {
          "indexed": true,
          "internalType": "address",
          "name": "owner",
          "type": "address"
        },
        {
          "indexed": true,
          "internalType": "address",
          "name": "approved",
          "type": "address"
        },
        {
          "indexed": true,
          "internalType": "uint256",
          "name": "tokenId",
          "type": "uint256"
        }
      ],
      "name": "Approval",
      "type": "event"
    },
    {
      "anonymous": false,
      "inputs": [
        {
          "indexed": true,
          "internalType": "address",
          "name": "owner",
          "type": "address"
        },
        {
          "indexed": true,
          "internalType": "address",
          "name": "operator",
          "type": "address"
        },
        {
          "indexed": false,
          "internalType": "bool",
          "name": "approved",
          "type": "bool"
        }
      ],
      "name": "ApprovalForAll",
      "type": "event"
    },
    {
      "anonymous": false,
      "inputs": [
        {
          "indexed": true,
          "internalType": "address",
          "name": "from",
          "type": "address"
        },
        {
          "indexed": true,
          "internalType": "address",
          "name": "to",
          "type": "address"
        },
        {
          "indexed": true,
          "internalType": "uint256",
          "name": "tokenId",
          "type": "uint256"
        }
      ],
      "name": "Transfer",
      "type": "event"
    },
    {
      "inputs": [],
      "name": "MAX_SUPPLY",
      "outputs": [
        {
          "internalType": "uint256",
          "name": "",
          "type": "uint256"
        }
      ],
      "stateMutability": "view",
      "type": "function"
    },
    {
      "inputs": [
        {
          "internalType": "address",
          "name": "to",
          "type": "address"
        },
        {
          "internalType": "uint256",
          "name": "tokenId",
          "type": "uint256"
        }
      ],
      "name": "approve",
      "outputs": [],
      "stateMutability": "nonpayable",
      "type": "function"
    },
    {
      "inputs": [
        {
          "internalType": "address",
          "name": "owner",
          "type": "address"
        }
      ],
      "name": "balanceOf",
      "outputs": [
        {
          "internalType": "uint256",
          "name": "",
          "type": "uint256"
        }
      ],
      "stateMutability": "view",
      "type": "function"
    },
    {
      "inputs": [
        {
          "internalType": "uint256",
          "name": "tokenId",
          "type": "uint256"
        }
      ],
      "name": "getApproved",
      "outputs": [
        {
          "internalType": "address",
          "name": "",
          "type": "address"
        }
      ],
      "stateMutability": "view",
      "type": "function"
    },
    {
      "inputs": [
        {
          "internalType": "address",
          "name": "owner",
          "type": "address"
        },
        {
          "internalType": "address",
          "name": "operator",
          "type": "address"
        }
      ],
      "name": "isApprovedForAll",
      "outputs": [
        {
          "internalType": "bool",
          "name": "",
          "type": "bool"
        }
      ],
      "stateMutability": "view",
      "type": "function"
    },
    {
      "inputs": [
        {
          "internalType": "string",
          "name": "name",
          "type": "string"
        },
        {
          "internalType": "string",
          "name": "imageURI",
          "type": "string"
        }
      ],
      "name": "mintIpfsNFT",
      "outputs": [
        {
          "internalType": "uint256",
          "name": "",
          "type": "uint256"
        }
      ],
      "stateMutability": "nonpayable",
      "type": "function"
    },
    {
      "inputs": [],
      "name": "name",
      "outputs": [
        {
          "internalType": "string",
          "name": "",
          "type": "string"
        }
      ],
      "stateMutability": "view",
      "type": "function"
    },
    {
      "inputs": [
        {
          "internalType": "uint256",
          "name": "tokenId",
          "type": "uint256"
        }
      ],
      "name": "ownerOf",
      "outputs": [
        {
          "internalType": "address",
          "name": "",
          "type": "address"
        }
      ],
      "stateMutability": "view",
      "type": "function"
    },
    {
      "inputs": [
        {
          "internalType": "address",
          "name": "from",
          "type": "address"
        },
        {
          "internalType": "address",
          "name": "to",
          "type": "address"
        },
        {
          "internalType": "uint256",
          "name": "tokenId",
          "type": "uint256"
        }
      ],
      "name": "safeTransferFrom",
      "outputs": [],
      "stateMutability": "nonpayable",
      "type": "function"
    },
    {
      "inputs": [
        {
          "internalType": "address",
          "name": "from",
          "type": "address"
        },
        {
          "internalType": "address",
          "name": "to",
          "type": "address"
        },
        {
          "internalType": "uint256",
          "name": "tokenId",
          "type": "uint256"
        },
        {
          "internalType": "bytes",
          "name": "data",
          "type": "bytes"
        }
      ],
      "name": "safeTransferFrom",
      "outputs": [],
      "stateMutability": "nonpayable",
      "type": "function"
    },
    {
      "inputs": [
        {
          "internalType": "address",
          "name": "operator",
          "type": "address"
        },
        {
          "internalType": "bool",
          "name": "approved",
          "type": "bool"
        }
      ],
      "name": "setApprovalForAll",
      "outputs": [],
      "stateMutability": "nonpayable",
      "type": "function"
    },
    {
      "inputs": [
        {
          "internalType": "bytes4",
          "name": "interfaceId",
          "type": "bytes4"
        }
      ],
      "name": "supportsInterface",
      "outputs": [
        {
          "internalType": "bool",
          "name": "",
          "type": "bool"
        }
      ],
      "stateMutability": "view",
      "type": "function"
    },
    {
      "inputs": [],
      "name": "symbol",
      "outputs": [
        {
          "internalType": "string",
          "name": "",
          "type": "string"
        }
      ],
      "stateMutability": "view",
      "type": "function"
    },
    {
      "inputs": [
        {
          "internalType": "uint256",
          "name": "_tokenId",
          "type": "uint256"
        }
      ],
      "name": "tokenURI",
      "outputs": [
        {
          "internalType": "string",
          "name": "",
          "type": "string"
        }
      ],
      "stateMutability": "view",
      "type": "function"
    },
    {
      "inputs": [
        {
          "internalType": "address",
          "name": "from",
          "type": "address"
        },
        {
          "internalType": "address",
          "name": "to",
          "type": "address"
        },
        {
          "internalType": "uint256",
          "name": "tokenId",
          "type": "uint256"
        }
      ],
      "name": "transferFrom",
      "outputs": [],
      "stateMutability": "nonpayable",
      "type": "function"
    }
  ],
  "bytecode": "0x60806040523480156200001157600080fd5b506040518060400160405280601d81526020017f53616d706c65204e46547320666f72204552432d363535312044656d6f0000008152506040518060400160405280600381526020017f434954000000000000000000000000000000000000000000000000000000000081525081600090816200008f919062000324565b508060019081620000a1919062000324565b5050506200040b565b600081519050919050565b7f4e487b7100000000000000000000000000000000000000000000000000000000600052604160045260246000fd5b7f4e487b7100000000000000000000000000000000000000000000000000000000600052602260045260246000fd5b600060028204905060018216806200012c57607f821691505b602082108103620001425762000141620000e4565b5b50919050565b60008190508160005260206000209050919050565b60006020601f8301049050919050565b600082821b905092915050565b600060088302620001ac7fffffffffffffffffffffffffffffffffffffffffffffffffffffffffffffffff826200016d565b620001b886836200016d565b95508019841693508086168417925050509392505050565b6000819050919050565b6000819050919050565b600062000205620001ff620001f984620001d0565b620001da565b620001d0565b9050919050565b6000819050919050565b6200022183620001e4565b6200023962000230826200020c565b8484546200017a565b825550505050565b600090565b6200025062000241565b6200025d81848462000216565b505050565b5b8181101562000285576200027960008262000246565b60018101905062000263565b5050565b601f821115620002d4576200029e8162000148565b620002a9846200015d565b81016020851015620002b9578190505b620002d1620002c8856200015d565b83018262000262565b50505b505050565b600082821c905092915050565b6000620002f960001984600802620002d9565b1980831691505092915050565b6000620003148383620002e6565b9150826002028217905092915050565b6200032f82620000aa565b67ffffffffffffffff8111156200034b576200034a620000b5565b5b62000357825462000113565b6200036482828562000289565b600060209050601f8311600181146200039c576000841562000387578287015190505b62000393858262000306565b86555062000403565b601f198416620003ac8662000148565b60005b82811015620003d657848901518255600182019150602085019450602081019050620003af565b86831015620003f65784890151620003f2601f891682620002e6565b8355505b6001600288020188555050505b505050505050565b612fa3806200041b6000396000f3fe608060405234801561001057600080fd5b50600436106100f55760003560e01c80636352211e11610097578063b88d4fde11610066578063b88d4fde14610284578063c87b56dd146102a0578063e985e9c5146102d0578063eb00195d14610300576100f5565b80636352211e146101ea57806370a082311461021a57806395d89b411461024a578063a22cb46514610268576100f5565b8063095ea7b3116100d3578063095ea7b31461017857806323b872dd1461019457806332cb6b0c146101b057806342842e0e146101ce576100f5565b806301ffc9a7146100fa57806306fdde031461012a578063081812fc14610148575b600080fd5b610114600480360381019061010f9190611ad7565b610330565b6040516101219190611b1f565b60405180910390f35b610132610412565b60405161013f9190611bca565b60405180910390f35b610162600480360381019061015d9190611c22565b6104a4565b60405161016f9190611c90565b60405180910390f35b610192600480360381019061018d9190611cd7565b6104ea565b005b6101ae60048036038101906101a99190611d17565b610601565b005b6101b8610661565b6040516101c59190611d79565b60405180910390f35b6101e860048036038101906101e39190611d17565b610666565b005b61020460048036038101906101ff9190611c22565b610686565b6040516102119190611c90565b60405180910390f35b610234600480360381019061022f9190611d94565b61070c565b6040516102419190611d79565b60405180910390f35b6102526107c3565b60405161025f9190611bca565b60405180910390f35b610282600480360381019061027d9190611ded565b610855565b005b61029e60048036038101906102999190611f62565b61086b565b005b6102ba60048036038101906102b59190611c22565b6108cd565b6040516102c79190611bca565b60405180910390f35b6102ea60048036038101906102e59190611fe5565b61097d565b6040516102f79190611b1f565b60405180910390f35b61031a600480360381019061031591906120c6565b610a11565b6040516103279190611d79565b60405180910390f35b60007f80ac58cd000000000000000000000000000000000000000000000000000000007bffffffffffffffffffffffffffffffffffffffffffffffffffffffff1916827bffffffffffffffffffffffffffffffffffffffffffffffffffffffff191614806103fb57507f5b5e139f000000000000000000000000000000000000000000000000000000007bffffffffffffffffffffffffffffffffffffffffffffffffffffffff1916827bffffffffffffffffffffffffffffffffffffffffffffffffffffffff1916145b8061040b575061040a82610af9565b5b9050919050565b6060600080546104219061216d565b80601f016020809104026020016040519081016040528092919081815260200182805461044d9061216d565b801561049a5780601f1061046f5761010080835404028352916020019161049a565b820191906000526020600020905b81548152906001019060200180831161047d57829003601f168201915b5050505050905090565b60006104af82610b63565b6004600083815260200190815260200160002060009054906101000a900473ffffffffffffffffffffffffffffffffffffffff169050919050565b60006104f582610686565b90508073ffffffffffffffffffffffffffffffffffffffff168373ffffffffffffffffffffffffffffffffffffffff1603610565576040517f08c379a000000000000000000000000000000000000000000000000000000000815260040161055c90612210565b60405180910390fd5b8073ffffffffffffffffffffffffffffffffffffffff16610584610bae565b73ffffffffffffffffffffffffffffffffffffffff1614806105b357506105b2816105ad610bae565b61097d565b5b6105f2576040517f08c379a00000000000000000000000000000000000000000000000000000000081526004016105e9906122a2565b60405180910390fd5b6105fc8383610bb6565b505050565b61061261060c610bae565b82610c6f565b610651576040517f08c379a000000000000000000000000000000000000000000000000000000000815260040161064890612334565b60405180910390fd5b61065c838383610d04565b505050565b60c881565b6106818383836040518060200160405280600081525061086b565b505050565b60008061069283610ffd565b9050600073ffffffffffffffffffffffffffffffffffffffff168173ffffffffffffffffffffffffffffffffffffffff1603610703576040517f08c379a00000000000000000000000000000000000000000000000000000000081526004016106fa906123a0565b60405180910390fd5b80915050919050565b60008073ffffffffffffffffffffffffffffffffffffffff168273ffffffffffffffffffffffffffffffffffffffff160361077c576040517f08c379a000000000000000000000000000000000000000000000000000000000815260040161077390612432565b60405180910390fd5b600360008373ffffffffffffffffffffffffffffffffffffffff1673ffffffffffffffffffffffffffffffffffffffff168152602001908152602001600020549050919050565b6060600180546107d29061216d565b80601f01602080910402602001604051908101604052809291908181526020018280546107fe9061216d565b801561084b5780601f106108205761010080835404028352916020019161084b565b820191906000526020600020905b81548152906001019060200180831161082e57829003601f168201915b5050505050905090565b610867610860610bae565b838361103a565b5050565b61087c610876610bae565b83610c6f565b6108bb576040517f08c379a00000000000000000000000000000000000000000000000000000000081526004016108b290612334565b60405180910390fd5b6108c7848484846111a6565b50505050565b6060600061094d600784815481106108e8576108e7612452565b5b906000526020600020906002020160000161090285611202565b6007868154811061091657610915612452565b5b9060005260206000209060020201600101604051602001610939939291906126ab565b6040516020818303038152906040526112d0565b90506000816040516020016109629190612754565b60405160208183030381529060405290508092505050919050565b6000600560008473ffffffffffffffffffffffffffffffffffffffff1673ffffffffffffffffffffffffffffffffffffffff16815260200190815260200160002060008373ffffffffffffffffffffffffffffffffffffffff1673ffffffffffffffffffffffffffffffffffffffff16815260200190815260200160002060009054906101000a900460ff16905092915050565b600060c8610a1f6006611467565b10610a5f576040517f08c379a0000000000000000000000000000000000000000000000000000000008152600401610a56906127c2565b60405180910390fd5b6000610a6b6006611467565b9050610a773382611475565b600760405180604001604052808681526020018581525090806001815401808255809150506001900390600052602060002090600202016000909190919091506000820151816000019081610acc9190612979565b506020820151816001019081610ae29190612979565b505050610aef6006611493565b8091505092915050565b60007f01ffc9a7000000000000000000000000000000000000000000000000000000007bffffffffffffffffffffffffffffffffffffffffffffffffffffffff1916827bffffffffffffffffffffffffffffffffffffffffffffffffffffffff1916149050919050565b610b6c816114a9565b610bab576040517f08c379a0000000000000000000000000000000000000000000000000000000008152600401610ba2906123a0565b60405180910390fd5b50565b600033905090565b816004600083815260200190815260200160002060006101000a81548173ffffffffffffffffffffffffffffffffffffffff021916908373ffffffffffffffffffffffffffffffffffffffff160217905550808273ffffffffffffffffffffffffffffffffffffffff16610c2983610686565b73ffffffffffffffffffffffffffffffffffffffff167f8c5be1e5ebec7d5bd14f71427d1e84f3dd0314c0f7b2291e5b200ac8c7c3b92560405160405180910390a45050565b600080610c7b83610686565b90508073ffffffffffffffffffffffffffffffffffffffff168473ffffffffffffffffffffffffffffffffffffffff161480610cbd5750610cbc818561097d565b5b80610cfb57508373ffffffffffffffffffffffffffffffffffffffff16610ce3846104a4565b73ffffffffffffffffffffffffffffffffffffffff16145b91505092915050565b8273ffffffffffffffffffffffffffffffffffffffff16610d2482610686565b73ffffffffffffffffffffffffffffffffffffffff1614610d7a576040517f08c379a0000000000000000000000000000000000000000000000000000000008152600401610d7190612abd565b60405180910390fd5b600073ffffffffffffffffffffffffffffffffffffffff168273ffffffffffffffffffffffffffffffffffffffff1603610de9576040517f08c379a0000000000000000000000000000000000000000000000000000000008152600401610de090612b4f565b60405180910390fd5b610df683838360016114ea565b8273ffffffffffffffffffffffffffffffffffffffff16610e1682610686565b73ffffffffffffffffffffffffffffffffffffffff1614610e6c576040517f08c379a0000000000000000000000000000000000000000000000000000000008152600401610e6390612abd565b60405180910390fd5b6004600082815260200190815260200160002060006101000a81549073ffffffffffffffffffffffffffffffffffffffff02191690556001600360008573ffffffffffffffffffffffffffffffffffffffff1673ffffffffffffffffffffffffffffffffffffffff168152602001908152602001600020600082825403925050819055506001600360008473ffffffffffffffffffffffffffffffffffffffff1673ffffffffffffffffffffffffffffffffffffffff16815260200190815260200160002060008282540192505081905550816002600083815260200190815260200160002060006101000a81548173ffffffffffffffffffffffffffffffffffffffff021916908373ffffffffffffffffffffffffffffffffffffffff160217905550808273ffffffffffffffffffffffffffffffffffffffff168473ffffffffffffffffffffffffffffffffffffffff167fddf252ad1be2c89b69c2b068fc378daa952ba7f163c4a11628f55a4df523b3ef60405160405180910390a4610ff883838360016114f0565b505050565b60006002600083815260200190815260200160002060009054906101000a900473ffffffffffffffffffffffffffffffffffffffff169050919050565b8173ffffffffffffffffffffffffffffffffffffffff168373ffffffffffffffffffffffffffffffffffffffff16036110a8576040517f08c379a000000000000000000000000000000000000000000000000000000000815260040161109f90612bbb565b60405180910390fd5b80600560008573ffffffffffffffffffffffffffffffffffffffff1673ffffffffffffffffffffffffffffffffffffffff16815260200190815260200160002060008473ffffffffffffffffffffffffffffffffffffffff1673ffffffffffffffffffffffffffffffffffffffff16815260200190815260200160002060006101000a81548160ff0219169083151502179055508173ffffffffffffffffffffffffffffffffffffffff168373ffffffffffffffffffffffffffffffffffffffff167f17307eab39ab6107e8899845ad3d59bd9653f200f220920489ca2b5937696c31836040516111999190611b1f565b60405180910390a3505050565b6111b1848484610d04565b6111bd848484846114f6565b6111fc576040517f08c379a00000000000000000000000000000000000000000000000000000000081526004016111f390612c4d565b60405180910390fd5b50505050565b6060600060016112118461167d565b01905060008167ffffffffffffffff8111156112305761122f611e37565b5b6040519080825280601f01601f1916602001820160405280156112625781602001600182028036833780820191505090505b509050600082602001820190505b6001156112c5578080600190039150507f3031323334353637383961626364656600000000000000000000000000000000600a86061a8153600a85816112b9576112b8612c6d565b5b04945060008503611270575b819350505050919050565b6060600082519050600081036112f85760405180602001604052806000815250915050611462565b600060036002836113099190612ccb565b6113139190612cff565b600461131f9190612d30565b905060006020826113309190612ccb565b67ffffffffffffffff81111561134957611348611e37565b5b6040519080825280601f01601f19166020018201604052801561137b5781602001600182028036833780820191505090505b5090506000604051806060016040528060408152602001612f2e604091399050600181016020830160005b8681101561141f5760038101905062ffffff818a015116603f8160121c168401518060081b905060ff603f83600c1c1686015116810190508060081b905060ff603f8360061c1686015116810190508060081b905060ff603f831686015116810190508060e01b905080845260048401935050506113a6565b506003860660018114611439576002811461144957611454565b613d3d60f01b6002830352611454565b603d60f81b60018303525b508484525050819450505050505b919050565b600081600001549050919050565b61148f8282604051806020016040528060008152506117d0565b5050565b6001816000016000828254019250508190555050565b60008073ffffffffffffffffffffffffffffffffffffffff166114cb83610ffd565b73ffffffffffffffffffffffffffffffffffffffff1614159050919050565b50505050565b50505050565b60006115178473ffffffffffffffffffffffffffffffffffffffff1661182b565b15611670578373ffffffffffffffffffffffffffffffffffffffff1663150b7a02611540610bae565b8786866040518563ffffffff1660e01b81526004016115629493929190612dc7565b6020604051808303816000875af192505050801561159e57506040513d601f19601f8201168201806040525081019061159b9190612e28565b60015b611620573d80600081146115ce576040519150601f19603f3d011682016040523d82523d6000602084013e6115d3565b606091505b506000815103611618576040517f08c379a000000000000000000000000000000000000000000000000000000000815260040161160f90612c4d565b60405180910390fd5b805181602001fd5b63150b7a0260e01b7bffffffffffffffffffffffffffffffffffffffffffffffffffffffff1916817bffffffffffffffffffffffffffffffffffffffffffffffffffffffff191614915050611675565b600190505b949350505050565b600080600090507a184f03e93ff9f4daa797ed6e38ed64bf6a1f01000000000000000083106116db577a184f03e93ff9f4daa797ed6e38ed64bf6a1f01000000000000000083816116d1576116d0612c6d565b5b0492506040810190505b6d04ee2d6d415b85acef81000000008310611718576d04ee2d6d415b85acef8100000000838161170e5761170d612c6d565b5b0492506020810190505b662386f26fc10000831061174757662386f26fc10000838161173d5761173c612c6d565b5b0492506010810190505b6305f5e1008310611770576305f5e100838161176657611765612c6d565b5b0492506008810190505b612710831061179557612710838161178b5761178a612c6d565b5b0492506004810190505b606483106117b857606483816117ae576117ad612c6d565b5b0492506002810190505b600a83106117c7576001810190505b80915050919050565b6117da838361184e565b6117e760008484846114f6565b611826576040517f08c379a000000000000000000000000000000000000000000000000000000000815260040161181d90612c4d565b60405180910390fd5b505050565b6000808273ffffffffffffffffffffffffffffffffffffffff163b119050919050565b600073ffffffffffffffffffffffffffffffffffffffff168273ffffffffffffffffffffffffffffffffffffffff16036118bd576040517f08c379a00000000000000000000000000000000000000000000000000000000081526004016118b490612ea1565b60405180910390fd5b6118c6816114a9565b15611906576040517f08c379a00000000000000000000000000000000000000000000000000000000081526004016118fd90612f0d565b60405180910390fd5b6119146000838360016114ea565b61191d816114a9565b1561195d576040517f08c379a000000000000000000000000000000000000000000000000000000000815260040161195490612f0d565b60405180910390fd5b6001600360008473ffffffffffffffffffffffffffffffffffffffff1673ffffffffffffffffffffffffffffffffffffffff16815260200190815260200160002060008282540192505081905550816002600083815260200190815260200160002060006101000a81548173ffffffffffffffffffffffffffffffffffffffff021916908373ffffffffffffffffffffffffffffffffffffffff160217905550808273ffffffffffffffffffffffffffffffffffffffff16600073ffffffffffffffffffffffffffffffffffffffff167fddf252ad1be2c89b69c2b068fc378daa952ba7f163c4a11628f55a4df523b3ef60405160405180910390a4611a676000838360016114f0565b5050565b6000604051905090565b600080fd5b600080fd5b60007fffffffff0000000000000000000000000000000000000000000000000000000082169050919050565b611ab481611a7f565b8114611abf57600080fd5b50565b600081359050611ad181611aab565b92915050565b600060208284031215611aed57611aec611a75565b5b6000611afb84828501611ac2565b91505092915050565b60008115159050919050565b611b1981611b04565b82525050565b6000602082019050611b346000830184611b10565b92915050565b600081519050919050565b600082825260208201905092915050565b60005b83811015611b74578082015181840152602081019050611b59565b60008484015250505050565b6000601f19601f8301169050919050565b6000611b9c82611b3a565b611ba68185611b45565b9350611bb6818560208601611b56565b611bbf81611b80565b840191505092915050565b60006020820190508181036000830152611be48184611b91565b905092915050565b6000819050919050565b611bff81611bec565b8114611c0a57600080fd5b50565b600081359050611c1c81611bf6565b92915050565b600060208284031215611c3857611c37611a75565b5b6000611c4684828501611c0d565b91505092915050565b600073ffffffffffffffffffffffffffffffffffffffff82169050919050565b6000611c7a82611c4f565b9050919050565b611c8a81611c6f565b82525050565b6000602082019050611ca56000830184611c81565b92915050565b611cb481611c6f565b8114611cbf57600080fd5b50565b600081359050611cd181611cab565b92915050565b60008060408385031215611cee57611ced611a75565b5b6000611cfc85828601611cc2565b9250506020611d0d85828601611c0d565b9150509250929050565b600080600060608486031215611d3057611d2f611a75565b5b6000611d3e86828701611cc2565b9350506020611d4f86828701611cc2565b9250506040611d6086828701611c0d565b9150509250925092565b611d7381611bec565b82525050565b6000602082019050611d8e6000830184611d6a565b92915050565b600060208284031215611daa57611da9611a75565b5b6000611db884828501611cc2565b91505092915050565b611dca81611b04565b8114611dd557600080fd5b50565b600081359050611de781611dc1565b92915050565b60008060408385031215611e0457611e03611a75565b5b6000611e1285828601611cc2565b9250506020611e2385828601611dd8565b9150509250929050565b600080fd5b600080fd5b7f4e487b7100000000000000000000000000000000000000000000000000000000600052604160045260246000fd5b611e6f82611b80565b810181811067ffffffffffffffff82111715611e8e57611e8d611e37565b5b80604052505050565b6000611ea1611a6b565b9050611ead8282611e66565b919050565b600067ffffffffffffffff821115611ecd57611ecc611e37565b5b611ed682611b80565b9050602081019050919050565b82818337600083830152505050565b6000611f05611f0084611eb2565b611e97565b905082815260208101848484011115611f2157611f20611e32565b5b611f2c848285611ee3565b509392505050565b600082601f830112611f4957611f48611e2d565b5b8135611f59848260208601611ef2565b91505092915050565b60008060008060808587031215611f7c57611f7b611a75565b5b6000611f8a87828801611cc2565b9450506020611f9b87828801611cc2565b9350506040611fac87828801611c0d565b925050606085013567ffffffffffffffff811115611fcd57611fcc611a7a565b5b611fd987828801611f34565b91505092959194509250565b60008060408385031215611ffc57611ffb611a75565b5b600061200a85828601611cc2565b925050602061201b85828601611cc2565b9150509250929050565b600067ffffffffffffffff8211156120405761203f611e37565b5b61204982611b80565b9050602081019050919050565b600061206961206484612025565b611e97565b90508281526020810184848401111561208557612084611e32565b5b612090848285611ee3565b509392505050565b600082601f8301126120ad576120ac611e2d565b5b81356120bd848260208601612056565b91505092915050565b600080604083850312156120dd576120dc611a75565b5b600083013567ffffffffffffffff8111156120fb576120fa611a7a565b5b61210785828601612098565b925050602083013567ffffffffffffffff81111561212857612127611a7a565b5b61213485828601612098565b9150509250929050565b7f4e487b7100000000000000000000000000000000000000000000000000000000600052602260045260246000fd5b6000600282049050600182168061218557607f821691505b6020821081036121985761219761213e565b5b50919050565b7f4552433732313a20617070726f76616c20746f2063757272656e74206f776e6560008201527f7200000000000000000000000000000000000000000000000000000000000000602082015250565b60006121fa602183611b45565b91506122058261219e565b604082019050919050565b60006020820190508181036000830152612229816121ed565b9050919050565b7f4552433732313a20617070726f76652063616c6c6572206973206e6f7420746f60008201527f6b656e206f776e6572206f7220617070726f76656420666f7220616c6c000000602082015250565b600061228c603d83611b45565b915061229782612230565b604082019050919050565b600060208201905081810360008301526122bb8161227f565b9050919050565b7f4552433732313a2063616c6c6572206973206e6f7420746f6b656e206f776e6560008201527f72206f7220617070726f76656400000000000000000000000000000000000000602082015250565b600061231e602d83611b45565b9150612329826122c2565b604082019050919050565b6000602082019050818103600083015261234d81612311565b9050919050565b7f4552433732313a20696e76616c696420746f6b656e2049440000000000000000600082015250565b600061238a601883611b45565b915061239582612354565b602082019050919050565b600060208201905081810360008301526123b98161237d565b9050919050565b7f4552433732313a2061646472657373207a65726f206973206e6f74206120766160008201527f6c6964206f776e65720000000000000000000000000000000000000000000000602082015250565b600061241c602983611b45565b9150612427826123c0565b604082019050919050565b6000602082019050818103600083015261244b8161240f565b9050919050565b7f4e487b7100000000000000000000000000000000000000000000000000000000600052603260045260246000fd5b600081905092915050565b7f7b226e616d65223a202200000000000000000000000000000000000000000000600082015250565b60006124c2600a83612481565b91506124cd8261248c565b600a82019050919050565b60008190508160005260206000209050919050565b600081546124fa8161216d565b6125048186612481565b9450600182166000811461251f576001811461253457612567565b60ff1983168652811515820286019350612567565b61253d856124d8565b60005b8381101561255f57815481890152600182019150602081019050612540565b838801955050505b50505092915050565b7f202d2d204e465420233a20000000000000000000000000000000000000000000600082015250565b60006125a6600b83612481565b91506125b182612570565b600b82019050919050565b60006125c782611b3a565b6125d18185612481565b93506125e1818560208601611b56565b80840191505092915050565b7f222c20226465736372697074696f6e223a2022416e2065706963204e4654222c60008201527f2022696d616765223a2022697066733a2f2f0000000000000000000000000000602082015250565b6000612649603283612481565b9150612654826125ed565b603282019050919050565b7f227d000000000000000000000000000000000000000000000000000000000000600082015250565b6000612695600283612481565b91506126a08261265f565b600282019050919050565b60006126b6826124b5565b91506126c282866124ed565b91506126cd82612599565b91506126d982856125bc565b91506126e48261263c565b91506126f082846124ed565b91506126fb82612688565b9150819050949350505050565b7f646174613a6170706c69636174696f6e2f6a736f6e3b6261736536342c000000600082015250565b600061273e601d83612481565b915061274982612708565b601d82019050919050565b600061275f82612731565b915061276b82846125bc565b915081905092915050565b7f4d617820737570706c7920726561636865640000000000000000000000000000600082015250565b60006127ac601283611b45565b91506127b782612776565b602082019050919050565b600060208201905081810360008301526127db8161279f565b9050919050565b60006020601f8301049050919050565b600082821b905092915050565b60006008830261282f7fffffffffffffffffffffffffffffffffffffffffffffffffffffffffffffffff826127f2565b61283986836127f2565b95508019841693508086168417925050509392505050565b6000819050919050565b600061287661287161286c84611bec565b612851565b611bec565b9050919050565b6000819050919050565b6128908361285b565b6128a461289c8261287d565b8484546127ff565b825550505050565b600090565b6128b96128ac565b6128c4818484612887565b505050565b5b818110156128e8576128dd6000826128b1565b6001810190506128ca565b5050565b601f82111561292d576128fe816124d8565b612907846127e2565b81016020851015612916578190505b61292a612922856127e2565b8301826128c9565b50505b505050565b600082821c905092915050565b600061295060001984600802612932565b1980831691505092915050565b6000612969838361293f565b9150826002028217905092915050565b61298282611b3a565b67ffffffffffffffff81111561299b5761299a611e37565b5b6129a5825461216d565b6129b08282856128ec565b600060209050601f8311600181146129e357600084156129d1578287015190505b6129db858261295d565b865550612a43565b601f1984166129f1866124d8565b60005b82811015612a19578489015182556001820191506020850194506020810190506129f4565b86831015612a365784890151612a32601f89168261293f565b8355505b6001600288020188555050505b505050505050565b7f4552433732313a207472616e736665722066726f6d20696e636f72726563742060008201527f6f776e6572000000000000000000000000000000000000000000000000000000602082015250565b6000612aa7602583611b45565b9150612ab282612a4b565b604082019050919050565b60006020820190508181036000830152612ad681612a9a565b9050919050565b7f4552433732313a207472616e7366657220746f20746865207a65726f2061646460008201527f7265737300000000000000000000000000000000000000000000000000000000602082015250565b6000612b39602483611b45565b9150612b4482612add565b604082019050919050565b60006020820190508181036000830152612b6881612b2c565b9050919050565b7f4552433732313a20617070726f766520746f2063616c6c657200000000000000600082015250565b6000612ba5601983611b45565b9150612bb082612b6f565b602082019050919050565b60006020820190508181036000830152612bd481612b98565b9050919050565b7f4552433732313a207472616e7366657220746f206e6f6e20455243373231526560008201527f63656976657220696d706c656d656e7465720000000000000000000000000000602082015250565b6000612c37603283611b45565b9150612c4282612bdb565b604082019050919050565b60006020820190508181036000830152612c6681612c2a565b9050919050565b7f4e487b7100000000000000000000000000000000000000000000000000000000600052601260045260246000fd5b7f4e487b7100000000000000000000000000000000000000000000000000000000600052601160045260246000fd5b6000612cd682611bec565b9150612ce183611bec565b9250828201905080821115612cf957612cf8612c9c565b5b92915050565b6000612d0a82611bec565b9150612d1583611bec565b925082612d2557612d24612c6d565b5b828204905092915050565b6000612d3b82611bec565b9150612d4683611bec565b9250828202612d5481611bec565b91508282048414831517612d6b57612d6a612c9c565b5b5092915050565b600081519050919050565b600082825260208201905092915050565b6000612d9982612d72565b612da38185612d7d565b9350612db3818560208601611b56565b612dbc81611b80565b840191505092915050565b6000608082019050612ddc6000830187611c81565b612de96020830186611c81565b612df66040830185611d6a565b8181036060830152612e088184612d8e565b905095945050505050565b600081519050612e2281611aab565b92915050565b600060208284031215612e3e57612e3d611a75565b5b6000612e4c84828501612e13565b91505092915050565b7f4552433732313a206d696e7420746f20746865207a65726f2061646472657373600082015250565b6000612e8b602083611b45565b9150612e9682612e55565b602082019050919050565b60006020820190508181036000830152612eba81612e7e565b9050919050565b7f4552433732313a20746f6b656e20616c7265616479206d696e74656400000000600082015250565b6000612ef7601c83611b45565b9150612f0282612ec1565b602082019050919050565b60006020820190508181036000830152612f2681612eea565b905091905056fe4142434445464748494a4b4c4d4e4f505152535455565758595a6162636465666768696a6b6c6d6e6f707172737475767778797a303132333435363738392b2fa26469706673582212208b23ac05c4667335991b0482c7146c004c745ed89a01b10564fac3e7adaec00d64736f6c63430008110033",
  "linkReferences": {},
  "deployedLinkReferences": {}
}